{
  "contractName": "Example",
  "abi": [
    {
      "anonymous": false,
      "inputs": [
        {
          "indexed": false,
          "internalType": "uint256",
          "name": "",
          "type": "uint256"
        }
      ],
      "name": "Return",
      "type": "event"
    },
    {
      "inputs": [],
      "name": "increment",
      "outputs": [
        {
          "internalType": "uint256",
          "name": "sum",
          "type": "uint256"
        }
      ],
      "stateMutability": "nonpayable",
      "type": "function"
    }
  ],
  "bytecode": "0x60806040526000805534801561001457600080fd5b50610199806100246000396000f3fe608060405234801561001057600080fd5b506004361061002b5760003560e01c8063d09de08a14610030575b600080fd5b61003861004e565b60405161004591906100c3565b60405180910390f35b60006001600080828254610062919061010d565b925050819055507f336bea1cd71b6fced353b888a0beae82acd2a0b7a3c283407f4b79af29cfa7ab60005460405161009a91906100c3565b60405180910390a1600054905090565b6000819050919050565b6100bd816100aa565b82525050565b60006020820190506100d860008301846100b4565b92915050565b7f4e487b7100000000000000000000000000000000000000000000000000000000600052601160045260246000fd5b6000610118826100aa565b9150610123836100aa565b9250827fffffffffffffffffffffffffffffffffffffffffffffffffffffffffffffffff03821115610158576101576100de565b5b82820190509291505056fea26469706673582212201e4cce972a4ea08072a4ac39753bdd3c8659aef455bbc0baec7049de7a5bacb564736f6c634300080d0033",
  "immutableReferences": {},
  "source": "// SPDX-License-Identifier: MIT\n\npragma solidity  ^0.8.13;\n\ncontract Example {\n    event Return(uint256);\n\n    uint256 accum = 0;\n\n    function increment () public returns (uint256 sum) {\n        accum += 1;\n        emit Return(accum);\n        return accum;\n    }\n}",
  "sourcePath": "/Users/Drogo/person/next-demo/blockchain/contracts/Example.sol",
  "compiler": {
    "name": "solc",
    "version": "0.8.13+commit.abaa5c0e.Emscripten.clang"
  },
  "schemaVersion": "3.4.7",
  "updatedAt": "2022-06-13T03:34:10.712Z",
  "networkType": "ethereum",
  "devdoc": {
    "kind": "dev",
    "methods": {},
    "version": 1
  },
  "userdoc": {
    "kind": "user",
    "methods": {},
    "version": 1
  }
}